{
  "contractName": "Rental",
  "abi": [
    {
      "constant": true,
      "inputs": [
        {
          "name": "",
          "type": "uint256"
        }
      ],
      "name": "renters",
      "outputs": [
        {
          "name": "",
          "type": "address"
        }
      ],
      "payable": false,
      "stateMutability": "view",
      "type": "function"
    },
    {
      "constant": false,
      "inputs": [
        {
          "name": "equipmentId",
          "type": "uint256"
        }
      ],
      "name": "rent",
      "outputs": [
        {
          "name": "",
          "type": "uint256"
        }
      ],
      "payable": false,
      "stateMutability": "nonpayable",
      "type": "function"
    },
    {
      "constant": true,
      "inputs": [],
      "name": "getRenters",
      "outputs": [
        {
          "name": "",
          "type": "address[16]"
        }
      ],
      "payable": false,
      "stateMutability": "view",
      "type": "function"
    }
  ],
  "bytecode": "0x608060405234801561001057600080fd5b506102d8806100206000396000f300608060405260043610610057576000357c0100000000000000000000000000000000000000000000000000000000900463ffffffff1680637456be7d1461005c5780638d5f18c81461009d578063dcc3974b146100f0575b600080fd5b34801561006857600080fd5b506100876004803603810190808035906020019092919050505061015d565b6040518082815260200191505060405180910390f35b3480156100a957600080fd5b506100b26101d2565b6040518082601060200280838360005b838110156100dd5780820151818401526020810190506100c2565b5050505090500191505060405180910390f35b3480156100fc57600080fd5b5061011b60048036038101908080359060200190929190505050610253565b604051808273ffffffffffffffffffffffffffffffffffffffff1673ffffffffffffffffffffffffffffffffffffffff16815260200191505060405180910390f35b60008082101580156101705750600f8211155b151561017b57600080fd5b3360008360108110151561018b57fe5b0160006101000a81548173ffffffffffffffffffffffffffffffffffffffff021916908373ffffffffffffffffffffffffffffffffffffffff160217905550819050919050565b6101da610288565b6000601080602002604051908101604052809291908260108015610249576020028201915b8160009054906101000a900473ffffffffffffffffffffffffffffffffffffffff1673ffffffffffffffffffffffffffffffffffffffff16815260200190600101908083116101ff575b5050505050905090565b60008160108110151561026257fe5b016000915054906101000a900473ffffffffffffffffffffffffffffffffffffffff1681565b610200604051908101604052806010906020820280388339808201915050905050905600a165627a7a72305820423c8446840f43a63cc205092d742b6d23a6da6097079c6bec07442c3201681e0029",
  "source": "pragma solidity ^0.4.17;\r\n\r\ncontract Rental {\r\n\r\n\t// public array of size 16 of address objects\r\n\t// public variables have automatic getter methods\r\n\taddress[16] public renters;\r\n\r\n\t// Adopting a pet\r\n\tfunction rent(uint equipmentId) public returns (uint) {\r\n\t\t// validate that parameter is within range\r\n\t\t// require function acts as conditional if type of statement, \r\n\t\t//\tuse as gatekeeper of sorts (rest of function won't continue if this fails)\r\n\t  \trequire(equipmentId >= 0 && equipmentId <= 15);\r\n\r\n\t  \t// the require statement passed, add the address of the smart contract at the index of the equipmentId in renters\r\n\t  \trenters[equipmentId] = msg.sender;\r\n\r\n\t  \t// equipmentId is returned as a confirmation that the function completed successfully\r\n\t  \treturn equipmentId;\r\n\t}\r\n\r\n\t// Getter function to get entire 'renters' array \r\n\t// \t(public arrays include getters for single values but not whole array)\r\n\t// Retrieving the renters\r\n\tfunction getRenters() public view returns (address[16]) {\r\n\t  \treturn renters;\r\n\t}\r\n}",
  "sourcePath": "C:\\dev\\solidity-test-projects\\rentalist\\contracts\\Rental.sol",
  "compiler": {
    "name": "solc",
    "version": "0.4.24+commit.e67f0147.Emscripten.clang"
  },
  "schemaVersion": "2.0.1",
  "updatedAt": "2018-08-23T03:57:50.092Z"
}